{
  "_format": "hh-sol-artifact-1",
  "contractName": "MicroLendingPlatform",
  "sourceName": "contracts/MicroLendingPlatform.sol",
  "abi": [
    {
      "inputs": [],
      "stateMutability": "nonpayable",
      "type": "constructor"
    },
    {
      "anonymous": false,
      "inputs": [
        {
          "indexed": false,
          "internalType": "uint256",
          "name": "loanId",
          "type": "uint256"
        },
        {
          "indexed": true,
          "internalType": "address",
          "name": "borrower",
          "type": "address"
        },
        {
          "indexed": false,
          "internalType": "uint256",
          "name": "amount",
          "type": "uint256"
        }
      ],
      "name": "LoanRepaid",
      "type": "event"
    },
    {
      "anonymous": false,
      "inputs": [
        {
          "indexed": false,
          "internalType": "uint256",
          "name": "loanId",
          "type": "uint256"
        },
        {
          "indexed": true,
          "internalType": "address",
          "name": "lender",
          "type": "address"
        }
      ],
      "name": "LoanRequestAccepted",
      "type": "event"
    },
    {
      "anonymous": false,
      "inputs": [
        {
          "indexed": false,
          "internalType": "uint256",
          "name": "loanId",
          "type": "uint256"
        },
        {
          "indexed": true,
          "internalType": "address",
          "name": "borrower",
          "type": "address"
        },
        {
          "indexed": false,
          "internalType": "uint256",
          "name": "amount",
          "type": "uint256"
        },
        {
          "indexed": false,
          "internalType": "uint256",
          "name": "interestRate",
          "type": "uint256"
        },
        {
          "indexed": false,
          "internalType": "uint256",
          "name": "duration",
          "type": "uint256"
        }
      ],
      "name": "LoanRequestCreated",
      "type": "event"
    },
    {
      "anonymous": false,
      "inputs": [
        {
          "indexed": true,
          "internalType": "address",
          "name": "user",
          "type": "address"
        },
        {
          "indexed": false,
          "internalType": "uint256",
          "name": "aadhaar",
          "type": "uint256"
        }
      ],
      "name": "UserRegistered",
      "type": "event"
    },
    {
      "inputs": [
        {
          "internalType": "uint256",
          "name": "loanId",
          "type": "uint256"
        }
      ],
      "name": "acceptLoan",
      "outputs": [],
      "stateMutability": "payable",
      "type": "function"
    },
    {
      "inputs": [],
      "name": "admin",
      "outputs": [
        {
          "internalType": "address",
          "name": "",
          "type": "address"
        }
      ],
      "stateMutability": "view",
      "type": "function"
    },
    {
      "inputs": [],
      "name": "defaultCreditScore",
      "outputs": [
        {
          "internalType": "uint256",
          "name": "",
          "type": "uint256"
        }
      ],
      "stateMutability": "view",
      "type": "function"
    },
    {
      "inputs": [
        {
          "internalType": "address",
          "name": "user",
          "type": "address"
        }
      ],
      "name": "getAadhaar",
      "outputs": [
        {
          "internalType": "uint256",
          "name": "",
          "type": "uint256"
        }
      ],
      "stateMutability": "view",
      "type": "function"
    },
    {
      "inputs": [
        {
          "internalType": "address",
          "name": "user",
          "type": "address"
        }
      ],
      "name": "getCreditScore",
      "outputs": [
        {
          "internalType": "uint256",
          "name": "",
          "type": "uint256"
        }
      ],
      "stateMutability": "view",
      "type": "function"
    },
    {
      "inputs": [
        {
          "internalType": "uint256",
          "name": "loanId",
          "type": "uint256"
        }
      ],
      "name": "getLoanAmount",
      "outputs": [
        {
          "internalType": "uint256",
          "name": "",
          "type": "uint256"
        }
      ],
      "stateMutability": "view",
      "type": "function"
    },
    {
      "inputs": [
        {
          "internalType": "address",
          "name": "user",
          "type": "address"
        }
      ],
      "name": "getLoansByUser",
      "outputs": [
        {
          "internalType": "uint256[]",
          "name": "",
          "type": "uint256[]"
        }
      ],
      "stateMutability": "view",
      "type": "function"
    },
    {
      "inputs": [
        {
          "internalType": "address",
          "name": "user",
          "type": "address"
        }
      ],
      "name": "getUserDept",
      "outputs": [
        {
          "internalType": "uint256",
          "name": "",
          "type": "uint256"
        }
      ],
      "stateMutability": "view",
      "type": "function"
    },
    {
      "inputs": [],
      "name": "loanCount",
      "outputs": [
        {
          "internalType": "uint256",
          "name": "",
          "type": "uint256"
        }
      ],
      "stateMutability": "view",
      "type": "function"
    },
    {
      "inputs": [
        {
          "internalType": "uint256",
          "name": "",
          "type": "uint256"
        }
      ],
      "name": "loans",
      "outputs": [
        {
          "internalType": "uint256",
          "name": "amount",
          "type": "uint256"
        },
        {
          "internalType": "uint256",
          "name": "interestRate",
          "type": "uint256"
        },
        {
          "internalType": "uint256",
          "name": "duration",
          "type": "uint256"
        },
        {
          "internalType": "uint256",
          "name": "startTime",
          "type": "uint256"
        },
        {
          "internalType": "uint256",
          "name": "endTime",
          "type": "uint256"
        },
        {
          "internalType": "address",
          "name": "borrower",
          "type": "address"
        },
        {
          "internalType": "address",
          "name": "lender",
          "type": "address"
        },
        {
          "internalType": "bool",
          "name": "isRepaid",
          "type": "bool"
        }
      ],
      "stateMutability": "view",
      "type": "function"
    },
    {
      "inputs": [
        {
          "internalType": "uint256",
          "name": "aadhaar",
          "type": "uint256"
        }
      ],
      "name": "registerUser",
      "outputs": [],
      "stateMutability": "nonpayable",
      "type": "function"
    },
    {
      "inputs": [
        {
          "internalType": "uint256",
          "name": "loanId",
          "type": "uint256"
        }
      ],
      "name": "repayLoan",
      "outputs": [],
      "stateMutability": "payable",
      "type": "function"
    },
    {
      "inputs": [
        {
          "internalType": "uint256",
          "name": "amount",
          "type": "uint256"
        },
        {
          "internalType": "uint256",
          "name": "interestRate",
          "type": "uint256"
        },
        {
          "internalType": "uint256",
          "name": "duration",
          "type": "uint256"
        }
      ],
      "name": "requestLoan",
      "outputs": [],
      "stateMutability": "nonpayable",
      "type": "function"
    },
    {
      "inputs": [
        {
          "internalType": "address",
          "name": "",
          "type": "address"
        }
      ],
      "name": "users",
      "outputs": [
        {
          "internalType": "address",
          "name": "wallet",
          "type": "address"
        },
        {
          "internalType": "uint256",
          "name": "aadhaar",
          "type": "uint256"
        },
        {
          "internalType": "bool",
          "name": "verified",
          "type": "bool"
        },
        {
          "internalType": "uint256",
          "name": "creditScore",
          "type": "uint256"
        }
      ],
      "stateMutability": "view",
      "type": "function"
    },
    {
      "inputs": [
        {
          "internalType": "address",
          "name": "userAddress",
          "type": "address"
        }
      ],
      "name": "verifyUser",
      "outputs": [],
      "stateMutability": "nonpayable",
      "type": "function"
    }
  ],
  "bytecode": "0x60806040526101f4600155348015601557600080fd5b50336000806101000a81548173ffffffffffffffffffffffffffffffffffffffff021916908373ffffffffffffffffffffffffffffffffffffffff160217905550611d4e806100656000396000f3fe6080604052600436106100e85760003560e01c8063a87430ba1161008a578063d3dd2bdf11610059578063d3dd2bdf14610301578063e1ec3c681461033e578063edadbbfe14610382578063f851a440146103ab576100e8565b8063a87430ba1461025e578063ab7b1c891461029e578063adfbe22f146102ba578063ce63094d146102d6576100e8565b80633e842090116100c65780633e8420901461017e5780634d813120146101bb57806354729978146101e45780638073dc5e14610221576100e8565b80631bbfae0e146100ed578063226546a414610116578063350ee3f714610153575b600080fd5b3480156100f957600080fd5b50610114600480360381019061010f919061133f565b6103d6565b005b34801561012257600080fd5b5061013d6004803603810190610138919061133f565b6105f1565b60405161014a919061137b565b60405180910390f35b34801561015f57600080fd5b50610168610611565b604051610175919061137b565b60405180910390f35b34801561018a57600080fd5b506101a560048036038101906101a091906113f4565b610617565b6040516101b291906114df565b60405180910390f35b3480156101c757600080fd5b506101e260048036038101906101dd91906113f4565b610726565b005b3480156101f057600080fd5b5061020b600480360381019061020691906113f4565b610812565b604051610218919061137b565b60405180910390f35b34801561022d57600080fd5b50610248600480360381019061024391906113f4565b61085e565b604051610255919061137b565b60405180910390f35b34801561026a57600080fd5b50610285600480360381019061028091906113f4565b610945565b604051610295949392919061152b565b60405180910390f35b6102b860048036038101906102b3919061133f565b6109a2565b005b6102d460048036038101906102cf919061133f565b610cb4565b005b3480156102e257600080fd5b506102eb610f3b565b6040516102f8919061137b565b60405180910390f35b34801561030d57600080fd5b50610328600480360381019061032391906113f4565b610f41565b604051610335919061137b565b60405180910390f35b34801561034a57600080fd5b506103656004803603810190610360919061133f565b610f8d565b604051610379989796959493929190611570565b60405180910390f35b34801561038e57600080fd5b506103a960048036038101906103a491906115ee565b611022565b005b3480156103b757600080fd5b506103c06112e0565b6040516103cd9190611641565b60405180910390f35b600073ffffffffffffffffffffffffffffffffffffffff16600260003373ffffffffffffffffffffffffffffffffffffffff1673ffffffffffffffffffffffffffffffffffffffff16815260200190815260200160002060000160009054906101000a900473ffffffffffffffffffffffffffffffffffffffff1673ffffffffffffffffffffffffffffffffffffffff16146104a7576040517f08c379a000000000000000000000000000000000000000000000000000000000815260040161049e906116b9565b60405180910390fd5b60405180608001604052803373ffffffffffffffffffffffffffffffffffffffff168152602001828152602001600115158152602001600154815250600260003373ffffffffffffffffffffffffffffffffffffffff1673ffffffffffffffffffffffffffffffffffffffff16815260200190815260200160002060008201518160000160006101000a81548173ffffffffffffffffffffffffffffffffffffffff021916908373ffffffffffffffffffffffffffffffffffffffff1602179055506020820151816001015560408201518160020160006101000a81548160ff021916908315150217905550606082015181600301559050503373ffffffffffffffffffffffffffffffffffffffff167fe29d35093005f4d575e1003753426b57a7f64378ba73332eef9c6ccc2b8decd6826040516105e6919061137b565b60405180910390a250565b600060036000838152602001908152602001600020600001549050919050565b60015481565b6060600060045467ffffffffffffffff811115610637576106366116d9565b5b6040519080825280602002602001820160405280156106655781602001602082028036833780820191505090505b5090506000805b60045481101561071b578473ffffffffffffffffffffffffffffffffffffffff166003600083815260200190815260200160002060050160009054906101000a900473ffffffffffffffffffffffffffffffffffffffff1673ffffffffffffffffffffffffffffffffffffffff160361070e57808383815181106106f3576106f2611708565b5b602002602001018181525050818061070a90611766565b9250505b808060010191505061066c565b508192505050919050565b60008054906101000a900473ffffffffffffffffffffffffffffffffffffffff1673ffffffffffffffffffffffffffffffffffffffff163373ffffffffffffffffffffffffffffffffffffffff16146107b4576040517f08c379a00000000000000000000000000000000000000000000000000000000081526004016107ab90611820565b60405180910390fd5b6001600260008373ffffffffffffffffffffffffffffffffffffffff1673ffffffffffffffffffffffffffffffffffffffff16815260200190815260200160002060020160006101000a81548160ff02191690831515021790555050565b6000600260008373ffffffffffffffffffffffffffffffffffffffff1673ffffffffffffffffffffffffffffffffffffffff168152602001908152602001600020600101549050919050565b6000806000905060005b60045481101561093b578373ffffffffffffffffffffffffffffffffffffffff166003600083815260200190815260200160002060050160009054906101000a900473ffffffffffffffffffffffffffffffffffffffff1673ffffffffffffffffffffffffffffffffffffffff1614801561090457506003600082815260200190815260200160002060060160149054906101000a900460ff16155b1561092e5760036000828152602001908152602001600020600001548261092b9190611840565b91505b8080600101915050610868565b5080915050919050565b60026020528060005260406000206000915090508060000160009054906101000a900473ffffffffffffffffffffffffffffffffffffffff16908060010154908060020160009054906101000a900460ff16908060030154905084565b60006003600083815260200190815260200160002090503373ffffffffffffffffffffffffffffffffffffffff168160050160009054906101000a900473ffffffffffffffffffffffffffffffffffffffff1673ffffffffffffffffffffffffffffffffffffffff1614610a4b576040517f08c379a0000000000000000000000000000000000000000000000000000000008152600401610a42906118c0565b60405180910390fd5b8060060160149054906101000a900460ff1615610a9d576040517f08c379a0000000000000000000000000000000000000000000000000000000008152600401610a949061192c565b60405180910390fd5b6000606482600101548360000154610ab5919061194c565b610abf91906119bd565b8260000154610ace9190611840565b9050803414610b12576040517f08c379a0000000000000000000000000000000000000000000000000000000008152600401610b0990611a3a565b60405180910390fd5b8160060160009054906101000a900473ffffffffffffffffffffffffffffffffffffffff1673ffffffffffffffffffffffffffffffffffffffff166108fc829081150290604051600060405180830381858888f19350505050158015610b7c573d6000803e3d6000fd5b5060018260060160146101000a81548160ff02191690831515021790555081600401544211610c04576014600260003373ffffffffffffffffffffffffffffffffffffffff1673ffffffffffffffffffffffffffffffffffffffff1681526020019081526020016000206003016000828254610bf89190611840565b92505081905550610c5f565b600a600260003373ffffffffffffffffffffffffffffffffffffffff1673ffffffffffffffffffffffffffffffffffffffff1681526020019081526020016000206003016000828254610c579190611a5a565b925050819055505b3373ffffffffffffffffffffffffffffffffffffffff167f512d3e65b3e58c2187bb1872aa435dba5bd09c1c03823ba56ab70aac411e4a218483604051610ca7929190611a8e565b60405180910390a2505050565b6000600360008381526020019081526020016000209050600073ffffffffffffffffffffffffffffffffffffffff168160050160009054906101000a900473ffffffffffffffffffffffffffffffffffffffff1673ffffffffffffffffffffffffffffffffffffffff1603610d5e576040517f08c379a0000000000000000000000000000000000000000000000000000000008152600401610d5590611b03565b60405180910390fd5b600073ffffffffffffffffffffffffffffffffffffffff168160060160009054906101000a900473ffffffffffffffffffffffffffffffffffffffff1673ffffffffffffffffffffffffffffffffffffffff1614610df1576040517f08c379a0000000000000000000000000000000000000000000000000000000008152600401610de890611b6f565b60405180910390fd5b80600001543414610e37576040517f08c379a0000000000000000000000000000000000000000000000000000000008152600401610e2e90611bdb565b60405180910390fd5b338160060160006101000a81548173ffffffffffffffffffffffffffffffffffffffff021916908373ffffffffffffffffffffffffffffffffffffffff1602179055508060050160009054906101000a900473ffffffffffffffffffffffffffffffffffffffff1673ffffffffffffffffffffffffffffffffffffffff166108fc82600001549081150290604051600060405180830381858888f19350505050158015610ee8573d6000803e3d6000fd5b503373ffffffffffffffffffffffffffffffffffffffff167f143550c881b9fb1eba30590d058e61c7b22e839989773139494f3284115d9cce83604051610f2f919061137b565b60405180910390a25050565b60045481565b6000600260008373ffffffffffffffffffffffffffffffffffffffff1673ffffffffffffffffffffffffffffffffffffffff168152602001908152602001600020600301549050919050565b60036020528060005260406000206000915090508060000154908060010154908060020154908060030154908060040154908060050160009054906101000a900473ffffffffffffffffffffffffffffffffffffffff16908060060160009054906101000a900473ffffffffffffffffffffffffffffffffffffffff16908060060160149054906101000a900460ff16905088565b600260003373ffffffffffffffffffffffffffffffffffffffff1673ffffffffffffffffffffffffffffffffffffffff16815260200190815260200160002060020160009054906101000a900460ff166110b1576040517f08c379a00000000000000000000000000000000000000000000000000000000081526004016110a890611c47565b60405180910390fd5b6000831180156110c15750600081115b611100576040517f08c379a00000000000000000000000000000000000000000000000000000000081526004016110f790611cb3565b60405180910390fd5b60405180610100016040528084815260200183815260200182815260200142815260200182426111309190611840565b81526020013373ffffffffffffffffffffffffffffffffffffffff168152602001600073ffffffffffffffffffffffffffffffffffffffff16815260200160001515815250600360006004548152602001908152602001600020600082015181600001556020820151816001015560408201518160020155606082015181600301556080820151816004015560a08201518160050160006101000a81548173ffffffffffffffffffffffffffffffffffffffff021916908373ffffffffffffffffffffffffffffffffffffffff16021790555060c08201518160060160006101000a81548173ffffffffffffffffffffffffffffffffffffffff021916908373ffffffffffffffffffffffffffffffffffffffff16021790555060e08201518160060160146101000a81548160ff0219169083151502179055509050503373ffffffffffffffffffffffffffffffffffffffff167f9de2064cad69ef8141b960a6b33ed36921ec69d79cb142983f4b98a58095ffb56004548585856040516112bb9493929190611cd3565b60405180910390a2600460008154809291906112d690611766565b9190505550505050565b60008054906101000a900473ffffffffffffffffffffffffffffffffffffffff1681565b600080fd5b6000819050919050565b61131c81611309565b811461132757600080fd5b50565b60008135905061133981611313565b92915050565b60006020828403121561135557611354611304565b5b60006113638482850161132a565b91505092915050565b61137581611309565b82525050565b6000602082019050611390600083018461136c565b92915050565b600073ffffffffffffffffffffffffffffffffffffffff82169050919050565b60006113c182611396565b9050919050565b6113d1816113b6565b81146113dc57600080fd5b50565b6000813590506113ee816113c8565b92915050565b60006020828403121561140a57611409611304565b5b6000611418848285016113df565b91505092915050565b600081519050919050565b600082825260208201905092915050565b6000819050602082019050919050565b61145681611309565b82525050565b6000611468838361144d565b60208301905092915050565b6000602082019050919050565b600061148c82611421565b611496818561142c565b93506114a18361143d565b8060005b838110156114d25781516114b9888261145c565b97506114c483611474565b9250506001810190506114a5565b5085935050505092915050565b600060208201905081810360008301526114f98184611481565b905092915050565b61150a816113b6565b82525050565b60008115159050919050565b61152581611510565b82525050565b60006080820190506115406000830187611501565b61154d602083018661136c565b61155a604083018561151c565b611567606083018461136c565b95945050505050565b600061010082019050611586600083018b61136c565b611593602083018a61136c565b6115a0604083018961136c565b6115ad606083018861136c565b6115ba608083018761136c565b6115c760a0830186611501565b6115d460c0830185611501565b6115e160e083018461151c565b9998505050505050505050565b60008060006060848603121561160757611606611304565b5b60006116158682870161132a565b93505060206116268682870161132a565b92505060406116378682870161132a565b9150509250925092565b60006020820190506116566000830184611501565b92915050565b600082825260208201905092915050565b7f5573657220616c72656164792072656769737465726564000000000000000000600082015250565b60006116a360178361165c565b91506116ae8261166d565b602082019050919050565b600060208201905081810360008301526116d281611696565b9050919050565b7f4e487b7100000000000000000000000000000000000000000000000000000000600052604160045260246000fd5b7f4e487b7100000000000000000000000000000000000000000000000000000000600052603260045260246000fd5b7f4e487b7100000000000000000000000000000000000000000000000000000000600052601160045260246000fd5b600061177182611309565b91507fffffffffffffffffffffffffffffffffffffffffffffffffffffffffffffffff82036117a3576117a2611737565b5b600182019050919050565b7f4f6e6c792061646d696e2063616e2061636365737320746869732066756e637460008201527f696f6e0000000000000000000000000000000000000000000000000000000000602082015250565b600061180a60238361165c565b9150611815826117ae565b604082019050919050565b60006020820190508181036000830152611839816117fd565b9050919050565b600061184b82611309565b915061185683611309565b925082820190508082111561186e5761186d611737565b5b92915050565b7f4f6e6c7920626f72726f7765722063616e207265706179000000000000000000600082015250565b60006118aa60178361165c565b91506118b582611874565b602082019050919050565b600060208201905081810360008301526118d98161189d565b9050919050565b7f4c6f616e20616c72656164792072657061696400000000000000000000000000600082015250565b600061191660138361165c565b9150611921826118e0565b602082019050919050565b6000602082019050818103600083015261194581611909565b9050919050565b600061195782611309565b915061196283611309565b925082820261197081611309565b9150828204841483151761198757611986611737565b5b5092915050565b7f4e487b7100000000000000000000000000000000000000000000000000000000600052601260045260246000fd5b60006119c882611309565b91506119d383611309565b9250826119e3576119e261198e565b5b828204905092915050565b7f496e636f72726563742072657061796d656e7420616d6f756e74000000000000600082015250565b6000611a24601a8361165c565b9150611a2f826119ee565b602082019050919050565b60006020820190508181036000830152611a5381611a17565b9050919050565b6000611a6582611309565b9150611a7083611309565b9250828203905081811115611a8857611a87611737565b5b92915050565b6000604082019050611aa3600083018561136c565b611ab0602083018461136c565b9392505050565b7f496e76616c6964206c6f616e2049440000000000000000000000000000000000600082015250565b6000611aed600f8361165c565b9150611af882611ab7565b602082019050919050565b60006020820190508181036000830152611b1c81611ae0565b9050919050565b7f4c6f616e20616c72656164792066756e64656400000000000000000000000000600082015250565b6000611b5960138361165c565b9150611b6482611b23565b602082019050919050565b60006020820190508181036000830152611b8881611b4c565b9050919050565b7f496e636f72726563742066756e64696e6720616d6f756e740000000000000000600082015250565b6000611bc560188361165c565b9150611bd082611b8f565b602082019050919050565b60006020820190508181036000830152611bf481611bb8565b9050919050565b7f55736572206e6f74207665726966696564000000000000000000000000000000600082015250565b6000611c3160118361165c565b9150611c3c82611bfb565b602082019050919050565b60006020820190508181036000830152611c6081611c24565b9050919050565b7f496e76616c6964206c6f616e20706172616d6574657273000000000000000000600082015250565b6000611c9d60178361165c565b9150611ca882611c67565b602082019050919050565b60006020820190508181036000830152611ccc81611c90565b9050919050565b6000608082019050611ce8600083018761136c565b611cf5602083018661136c565b611d02604083018561136c565b611d0f606083018461136c565b9594505050505056fea26469706673582212208970d0c82bab8b6f26a7d406dc35690382c93705147e9e68c8f4731e5815f7cd64736f6c634300081b0033",
  "linkReferences": {},
  "deployedLinkReferences": {}
}